{
  "contractName": "CoinV1",
  "abi": [
    {
      "constant": true,
      "inputs": [],
      "name": "name",
      "outputs": [
        {
          "name": "",
          "type": "string"
        }
      ],
      "payable": false,
      "stateMutability": "view",
      "type": "function"
    },
    {
      "constant": true,
      "inputs": [],
      "name": "totalSupply",
      "outputs": [
        {
          "name": "",
          "type": "uint256"
        }
      ],
      "payable": false,
      "stateMutability": "view",
      "type": "function"
    },
    {
      "constant": true,
      "inputs": [],
      "name": "decimal",
      "outputs": [
        {
          "name": "",
          "type": "uint256"
        }
      ],
      "payable": false,
      "stateMutability": "view",
      "type": "function"
    },
    {
      "constant": true,
      "inputs": [],
      "name": "symbol",
      "outputs": [
        {
          "name": "",
          "type": "string"
        }
      ],
      "payable": false,
      "stateMutability": "view",
      "type": "function"
    },
    {
      "inputs": [
        {
          "name": "initialSupply",
          "type": "uint256"
        }
      ],
      "payable": false,
      "stateMutability": "nonpayable",
      "type": "constructor"
    },
    {
      "anonymous": false,
      "inputs": [
        {
          "indexed": false,
          "name": "_from",
          "type": "address"
        },
        {
          "indexed": false,
          "name": "_to",
          "type": "address"
        },
        {
          "indexed": false,
          "name": "_value",
          "type": "uint256"
        }
      ],
      "name": "Transfer",
      "type": "event"
    },
    {
      "constant": false,
      "inputs": [
        {
          "name": "_to",
          "type": "address"
        },
        {
          "name": "_value",
          "type": "uint256"
        }
      ],
      "name": "transfer",
      "outputs": [
        {
          "name": "success",
          "type": "bool"
        }
      ],
      "payable": false,
      "stateMutability": "nonpayable",
      "type": "function"
    },
    {
      "constant": true,
      "inputs": [
        {
          "name": "_someone",
          "type": "address"
        }
      ],
      "name": "balanceOf",
      "outputs": [
        {
          "name": "balance",
          "type": "uint256"
        }
      ],
      "payable": false,
      "stateMutability": "view",
      "type": "function"
    }
  ],
  "bytecode": "0x608060405234801561001057600080fd5b5060405160208061052f8339810180604052810190808051906020019092919050505080600081905550600054600160003373ffffffffffffffffffffffffffffffffffffffff1673ffffffffffffffffffffffffffffffffffffffff168152602001908152602001600020819055505061049f806100906000396000f300608060405260043610610078576000357c0100000000000000000000000000000000000000000000000000000000900463ffffffff16806306fdde031461007d57806318160ddd1461010d57806370a082311461013857806376809ce31461018f57806395d89b41146101ba578063a9059cbb1461024a575b600080fd5b34801561008957600080fd5b506100926102af565b6040518080602001828103825283818151815260200191508051906020019080838360005b838110156100d25780820151818401526020810190506100b7565b50505050905090810190601f1680156100ff5780820380516001836020036101000a031916815260200191505b509250505060405180910390f35b34801561011957600080fd5b506101226102e8565b6040518082815260200191505060405180910390f35b34801561014457600080fd5b50610179600480360381019080803573ffffffffffffffffffffffffffffffffffffffff1690602001909291905050506102ee565b6040518082815260200191505060405180910390f35b34801561019b57600080fd5b506101a4610337565b6040518082815260200191505060405180910390f35b3480156101c657600080fd5b506101cf61033c565b6040518080602001828103825283818151815260200191508051906020019080838360005b8381101561020f5780820151818401526020810190506101f4565b50505050905090810190601f16801561023c5780820380516001836020036101000a031916815260200191505b509250505060405180910390f35b34801561025657600080fd5b50610295600480360381019080803573ffffffffffffffffffffffffffffffffffffffff16906020019092919080359060200190929190505050610375565b604051808215151515815260200191505060405180910390f35b6040805190810160405280601581526020017f666f6f7462616c6c2066616e7461637920636f696e000000000000000000000081525081565b60005481565b6000600160008373ffffffffffffffffffffffffffffffffffffffff1673ffffffffffffffffffffffffffffffffffffffff168152602001908152602001600020549050919050565b600681565b6040805190810160405280600381526020017f464643000000000000000000000000000000000000000000000000000000000081525081565b600080821180156103c45750600160003373ffffffffffffffffffffffffffffffffffffffff1673ffffffffffffffffffffffffffffffffffffffff1681526020019081526020016000205482115b156103d2576000905061046d565b81600160003373ffffffffffffffffffffffffffffffffffffffff1673ffffffffffffffffffffffffffffffffffffffff1681526020019081526020016000206000828254039250508190555081600160008573ffffffffffffffffffffffffffffffffffffffff1673ffffffffffffffffffffffffffffffffffffffff168152602001908152602001600020600082825401925050819055505b929150505600a165627a7a72305820b2870097f5692b61744e90cde40a3d5e9fdb1efc70d178008ce39e105a0b0d9d0029",
  "source": "pragma solidity ^ 0.4 .22;\r\n\r\n\r\ncontract CoinV1 {\r\n  string public constant name = \"football fantacy coin\";\r\n  string public constant symbol = \"FFC\";\r\n\r\n  // decimal units of currency\r\n  uint public constant decimal = 6;\r\n\r\n  //total supply of unit\r\n  uint256 public totalSupply;\r\n\r\n  //balances of accounts\r\n  mapping(address => uint256) balances;\r\n\r\n  constructor(uint256 initialSupply) public {\r\n    totalSupply = initialSupply;\r\n\r\n    //add balance to contract creator\r\n    balances[msg.sender] = totalSupply;\r\n  }\r\n\r\n\r\n\r\n  // transfer from calling account to recepient\r\n  event Transfer(address _from, address _to, uint256 _value); // emit the event\r\n  function transfer(address _to, uint256 _value) public returns(bool success) {\r\n    //check if value is less than sender and return false\r\n    if (_value > 0 && _value > balances[msg.sender]) {\r\n      return false;\r\n    }\r\n    //reduce sender balance and add _to balance\r\n    balances[msg.sender] -= _value;\r\n    balances[_to] += _value;\r\n\r\n\r\n\r\n  }\r\n\r\n\r\n  // anyone can call this constant function to check the balance of tokens for an address\r\n  function balanceOf(address _someone) public view returns(uint256 balance) {\r\n    return balances[_someone];\r\n  }\r\n\r\n}\r\n",
  "sourcePath": "C:\\Users\\Solution Science\\Google Drive\\work2\\projects\\ffc-ethereum\\contracts\\CoinV1.sol",
  "compiler": {
    "name": "solc",
    "version": "0.4.24+commit.e67f0147.Emscripten.clang"
  },
  "schemaVersion": "2.0.1",
  "updatedAt": "2018-11-14T08:34:17.823Z"
}