{
  "contractName": "League",
  "abi": [
    {
      "constant": true,
      "inputs": [
        {
          "name": "",
          "type": "uint256"
        }
      ],
      "name": "competitions",
      "outputs": [
        {
          "name": "manager",
          "type": "address"
        },
        {
          "name": "complete",
          "type": "bool"
        },
        {
          "name": "prizeMoney",
          "type": "uint256"
        },
        {
          "name": "maxPlayers",
          "type": "uint256"
        }
      ],
      "payable": false,
      "stateMutability": "view",
      "type": "function"
    },
    {
      "inputs": [
        {
          "name": "creator",
          "type": "address"
        }
      ],
      "payable": false,
      "stateMutability": "nonpayable",
      "type": "constructor"
    },
    {
      "constant": false,
      "inputs": [
        {
          "name": "max",
          "type": "uint256"
        }
      ],
      "name": "createCompetition",
      "outputs": [],
      "payable": true,
      "stateMutability": "payable",
      "type": "function"
    },
    {
      "constant": false,
      "inputs": [
        {
          "name": "index",
          "type": "uint256"
        }
      ],
      "name": "joinCompetition",
      "outputs": [],
      "payable": false,
      "stateMutability": "nonpayable",
      "type": "function"
    },
    {
      "constant": false,
      "inputs": [
        {
          "name": "index",
          "type": "uint256"
        },
        {
          "name": "winner",
          "type": "address"
        }
      ],
      "name": "awardWinner",
      "outputs": [],
      "payable": false,
      "stateMutability": "nonpayable",
      "type": "function"
    }
  ],
  "bytecode": "0x608060405234801561001057600080fd5b5060405160208061060383398101806040528101908080519060200190929190505050806000806101000a81548173ffffffffffffffffffffffffffffffffffffffff021916908373ffffffffffffffffffffffffffffffffffffffff16021790555050610580806100836000396000f300608060405260043610610062576000357c0100000000000000000000000000000000000000000000000000000000900463ffffffff1680631095846f1461006757806371730b5f14610094578063958bc07d146100e15780639f6828d914610101575b600080fd5b34801561007357600080fd5b5061009260048036038101908080359060200190929190505050610187565b005b3480156100a057600080fd5b506100df60048036038101908080359060200190929190803573ffffffffffffffffffffffffffffffffffffffff169060200190929190505050610276565b005b6100ff600480360381019080803590602001909291905050506103b2565b005b34801561010d57600080fd5b5061012c600480360381019080803590602001909291905050506104a7565b604051808573ffffffffffffffffffffffffffffffffffffffff1673ffffffffffffffffffffffffffffffffffffffff1681526020018415151515815260200183815260200182815260200194505050505060405180910390f35b60018181548110151561019657fe5b906000526020600020906004020160030160003373ffffffffffffffffffffffffffffffffffffffff1673ffffffffffffffffffffffffffffffffffffffff16815260200190815260200160002060009054906101000a900460ff161515156101fe57600080fd5b6001808281548110151561020e57fe5b906000526020600020906004020160030160003373ffffffffffffffffffffffffffffffffffffffff1673ffffffffffffffffffffffffffffffffffffffff16815260200190815260200160002060006101000a81548160ff02191690831515021790555050565b6000809054906101000a900473ffffffffffffffffffffffffffffffffffffffff1673ffffffffffffffffffffffffffffffffffffffff163373ffffffffffffffffffffffffffffffffffffffff161415156102d157600080fd5b6001828154811015156102e057fe5b906000526020600020906004020160030160008273ffffffffffffffffffffffffffffffffffffffff1673ffffffffffffffffffffffffffffffffffffffff16815260200190815260200160002060009054906101000a900460ff16151561034757600080fd5b8073ffffffffffffffffffffffffffffffffffffffff166108fc60018481548110151561037057fe5b9060005260206000209060040201600101549081150290604051600060405180830381858888f193505050501580156103ad573d6000803e3d6000fd5b505050565b6103ba610513565b6080604051908101604052803373ffffffffffffffffffffffffffffffffffffffff1681526020016000151581526020013481526020018381525090506001819080600181540180825580915050906001820390600052602060002090600402016000909192909190915060008201518160000160006101000a81548173ffffffffffffffffffffffffffffffffffffffff021916908373ffffffffffffffffffffffffffffffffffffffff16021790555060208201518160000160146101000a81548160ff02191690831515021790555060408201518160010155606082015181600201555050505050565b6001818154811015156104b657fe5b90600052602060002090600402016000915090508060000160009054906101000a900473ffffffffffffffffffffffffffffffffffffffff16908060000160149054906101000a900460ff16908060010154908060020154905084565b608060405190810160405280600073ffffffffffffffffffffffffffffffffffffffff168152602001600015158152602001600081526020016000815250905600a165627a7a723058200ceec4125c39e320afb61f8d8461c6ddd3b16f917f280a188536136b44fde6240029",
  "source": "pragma solidity ^0.4.6;\r\ncontract League{\r\n    //manager\r\n    address manager;\r\n    //restrictor\r\n    modifier restricted(){\r\n        require(msg.sender == manager);\r\n        _;\r\n    }\r\n    struct Competition{\r\n        address manager;\r\n        bool complete;\r\n        uint prizeMoney;\r\n        uint maxPlayers;\r\n        mapping(address=> bool) competitor;\r\n    }\r\n    \r\n    Competition[] public competitions;\r\n    \r\n    //constructor\r\n    constructor(address creator )  public{\r\n        manager = creator;\r\n        \r\n    }\r\n    //create Competition\r\n    function createCompetition(uint max) public payable{\r\n        \r\n        Competition memory newCompetition = Competition({\r\n            manager: msg.sender,\r\n            complete: false,\r\n            maxPlayers: max,\r\n            prizeMoney: msg.value\r\n        });\r\n        \r\n        competitions.push(newCompetition);\r\n        \r\n    }\r\n    \r\n    //join competitions using competion inde\r\n    function joinCompetition(uint index) public{\r\n        //check if joining twice\r\n        require(!competitions[index].competitor[msg.sender]);\r\n        // add msg sender to competition\r\n        competitions[index].competitor[msg.sender]= true;\r\n        \r\n    }\r\n    \r\n    //award winner using winner address\r\n    function awardWinner(uint index, address winner) public restricted{\r\n         //check if address is in competition\r\n        require(competitions[index].competitor[winner]);\r\n        // send winner the cash\r\n        winner.transfer(competitions[index].prizeMoney);\r\n        \r\n        \r\n    }\r\n}",
  "sourcePath": "C:\\Users\\Solution Science\\Google Drive\\work2\\projects\\ffc-ethereum\\contracts\\Leagues.sol",
  "compiler": {
    "name": "solc",
    "version": "0.4.24+commit.e67f0147.Emscripten.clang"
  },
  "schemaVersion": "2.0.1",
  "updatedAt": "2018-11-14T09:45:35.531Z"
}